{
  "contractName": "Will",
  "abi": [
    {
      "inputs": [],
      "stateMutability": "payable",
      "type": "constructor"
    },
    {
      "inputs": [
        {
          "internalType": "address payable",
          "name": "wallet",
          "type": "address"
        },
        {
          "internalType": "uint256",
          "name": "amount",
          "type": "uint256"
        }
      ],
      "name": "setInheritance",
      "outputs": [],
      "stateMutability": "nonpayable",
      "type": "function"
    },
    {
      "inputs": [],
      "name": "hasDeceased",
      "outputs": [],
      "stateMutability": "nonpayable",
      "type": "function"
    }
  ],
  "bytecode": "0x6080604052336000806101000a81548173ffffffffffffffffffffffffffffffffffffffff021916908373ffffffffffffffffffffffffffffffffffffffff160217905550346001819055506000600260006101000a81548160ff0219169083151502179055506104df806100756000396000f3fe608060405234801561001057600080fd5b50600436106100365760003560e01c806388d515941461003b578063eddcca9914610057575b600080fd5b610055600480360381019061005091906103c2565b610061565b005b61005f610164565b005b60008054906101000a900473ffffffffffffffffffffffffffffffffffffffff1673ffffffffffffffffffffffffffffffffffffffff163373ffffffffffffffffffffffffffffffffffffffff16146100b957600080fd5b6003829080600181540180825580915050600190039060005260206000200160009091909190916101000a81548173ffffffffffffffffffffffffffffffffffffffff021916908373ffffffffffffffffffffffffffffffffffffffff16021790555080600460008473ffffffffffffffffffffffffffffffffffffffff1673ffffffffffffffffffffffffffffffffffffffff168152602001908152602001600020819055505050565b60008054906101000a900473ffffffffffffffffffffffffffffffffffffffff1673ffffffffffffffffffffffffffffffffffffffff163373ffffffffffffffffffffffffffffffffffffffff16146101bc57600080fd5b6001600260006101000a81548160ff0219169083151502179055506101df6101e1565b565b60011515600260009054906101000a900460ff1615151461020157600080fd5b60005b600380549050811015610326576003818154811061022557610224610402565b5b9060005260206000200160009054906101000a900473ffffffffffffffffffffffffffffffffffffffff1673ffffffffffffffffffffffffffffffffffffffff166108fc600460006003858154811061028157610280610402565b5b9060005260206000200160009054906101000a900473ffffffffffffffffffffffffffffffffffffffff1673ffffffffffffffffffffffffffffffffffffffff1673ffffffffffffffffffffffffffffffffffffffff168152602001908152602001600020549081150290604051600060405180830381858888f19350505050158015610312573d6000803e3d6000fd5b50808061031e90610460565b915050610204565b50565b600080fd5b600073ffffffffffffffffffffffffffffffffffffffff82169050919050565b60006103598261032e565b9050919050565b6103698161034e565b811461037457600080fd5b50565b60008135905061038681610360565b92915050565b6000819050919050565b61039f8161038c565b81146103aa57600080fd5b50565b6000813590506103bc81610396565b92915050565b600080604083850312156103d9576103d8610329565b5b60006103e785828601610377565b92505060206103f8858286016103ad565b9150509250929050565b7f4e487b7100000000000000000000000000000000000000000000000000000000600052603260045260246000fd5b7f4e487b7100000000000000000000000000000000000000000000000000000000600052601160045260246000fd5b600061046b8261038c565b91507fffffffffffffffffffffffffffffffffffffffffffffffffffffffffffffffff82141561049e5761049d610431565b5b60018201905091905056fea264697066735822122013dd3c1c47a115a64e4428c7e82d1c200df8974bc19e34b1ed5ef63caa9ac58464736f6c634300080a0033",
  "immutableReferences": {},
  "source": "// SPDX-License-Identifier: MIT\r\npragma solidity >=0.4.22 <0.9.0;\r\n\r\ncontract Will {\r\n    address owner;\r\n    uint256 fortune;\r\n    bool deceased;\r\n\r\n    constructor() payable {\r\n        owner = msg.sender;\r\n        fortune = msg.value;\r\n        deceased = false;\r\n    }\r\n\r\n    modifier onlyOwner() {\r\n        require(msg.sender == owner);\r\n        _;\r\n    }\r\n\r\n    modifier mustDeceased() {\r\n        require(deceased == true);\r\n        _;\r\n    }\r\n\r\n    address payable[] familyWallets;\r\n\r\n    mapping(address => uint256) inheritance;\r\n\r\n    function setInheritance(address payable wallet, uint256 amount)\r\n        public\r\n        onlyOwner\r\n    {\r\n        familyWallets.push(wallet);\r\n        inheritance[wallet] = amount;\r\n    }\r\n\r\n    function payout() private mustDeceased {\r\n        for (uint256 i = 0; i < familyWallets.length; i++) {\r\n            familyWallets[i].transfer(inheritance[familyWallets[i]]);\r\n        }\r\n    }\r\n\r\n    function hasDeceased() public onlyOwner {\r\n        deceased = true;\r\n        payout();\r\n    }\r\n}\r\n",
  "sourcePath": "C:\\Users\\ASUS\\Project_Web3.0\\Will\\contracts\\Will.sol",
  "compiler": {
    "name": "solc",
    "version": "0.8.10+commit.fc410830.Emscripten.clang"
  },
  "schemaVersion": "3.4.4",
  "updatedAt": "2022-05-28T10:35:18.432Z",
  "devdoc": {
    "kind": "dev",
    "methods": {},
    "version": 1
  },
  "userdoc": {
    "kind": "user",
    "methods": {},
    "version": 1
  }
}